:020000040800F2
:1000000000A00020651A00088D1900088F1900084B
:1000100091190008931900089519000800000000C4
:100020000000000000000000000000009719000818
:1000300099190008000000009B1900089D1900088C
:10004000B51A0008B51A0008B51A0008B51A000854
:10005000B51A0008B51A0008B51A0008B51A000844
:10006000B51A0008B51A0008B51A0008B51A000834
:10007000B51A0008B51A0008B51A0008B51A000824
:10008000B51A0008B51A0008B51A0008B51A000814
:10009000B51A0008B51A0008B51A0008B51A000804
:1000A000B51A0008B51A0008B51A0008B51A0008F4
:1000B000B51A0008B51A0008B51A0008B51A0008E4
:1000C000B51A0008B51A0008B51A0008B51A0008D4
:1000D000B51A0008B51A0008B51A0008B51A0008C4
:1000E000B51A0008B51A0008B51A0008B51A0008B4
:1000F000B51A0008B51A0008B51A0008B51A0008A4
:10010000000000000000000000000000B51A000818
:10011000B51A0008B51A0008B51A0008B51A000883
:10012000B51A0008B51A0008B51A0008B51A000873
:10013000B51A0008B51A0008000000000000000011
:10014000B51A0008B51A0008B51A0008000000002A
:10015000000000000000000000000000000000009F
:100160000000000000000000B51A0008B51A0008E1
:10017000B51A0008000000000000000000000000A8
:0801800000000000B51A0008A0
:1001C00080F0004002E000BF81F0004142001FBF0C
:1001D0005FEA410392EA030F7FEA226C7FEA236C15
:1001E0006AD04FEA1262D2EB1363C1BFD21841400A
:1001F00048404140B8BF5B42192B88BF704710F0A0
:10020000004F40F4000020F07F4018BF404211F042
:10021000004F41F4000121F07F4118BF494292EAAA
:10022000030F3FD0A2F1010241FA03FC10EB0C00D6
:10023000C3F1200301FA03F100F0004302D5494263
:1002400060EB4000B0F5000F13D3B0F1807F06D310
:1002500040084FEA310102F10102FE2A51D2B1F108
:10026000004F40EBC25008BF20F0010040EA0300FD
:100270007047490040EB0000013A28BFB0F5000F7D
:10028000EDD2B0FA80FCACF1080CB2EB0C0200FA33
:100290000CF0AABF00EBC25052421843BCBFD04082
:1002A0001843704792F0000F81F4000106BF80F4FC
:1002B00000000132013BB5E74FEA41037FEA226CBF
:1002C00018BF7FEA236C21D092EA030F04D092F08A
:1002D000000F08BF0846704790EA010F1CBF0020BE
:1002E000704712F07F4F04D1400028BF40F000401B
:1002F000704712F100723CBF00F50000704700F03B
:10030000004343F0FE4040F4000070477FEA226261
:1003100016BF08467FEA23630146420206BF5FEA32
:10032000412390EA010F40F4800070474FF0000332
:1003300004E000BF10F0004348BF40425FEA000CF9
:1003400008BF704743F0964301464FF000001CE0A1
:1003500050EA010208BF70474FF000030AE000BFF7
:1003600050EA010208BF704711F0004302D5404235
:1003700061EB41015FEA010C02BF844601460020A7
:1003800043F0B64308BFA3F18053A3F50003BCFAC2
:100390008CF2083AA3EBC25310DB01FA02FC63446F
:1003A00000FA02FCC2F12002BCF1004F20FA02F276
:1003B00043EB020008BF20F00100704702F1200269
:1003C00001FA02FCC2F1200250EA4C0021FA02F2CA
:1003D00043EB020008BF20EADC7070474FEA40029E
:1003E000B2F1FE4F0FD34FF09E03B3EB12620DD963
:1003F0004FEA002343F0004310F0004F23FA02F0CD
:1004000018BF404270474FF00000704712F1610F73
:1004100001D1420205D110F0004008BF6FF000404A
:1004200070474FF00000704700000000000000001F
:1004300000000000000000000000000000000000BC
:1004400030B490F800F020F007016FF0000C10F0CD
:10045000070491F820F040F048804FF000046FF05E
:100460000700D1E9002391F840F000F1080082FA7A
:100470004CF2A4FA8CF283FA4CF3A2FA8CF34BBB45
:10048000D1E9022382FA4CF200F10800A4FA8CF2BE
:1004900083FA4CF3A2FA8CF3E3B9D1E9042382FA8C
:1004A0004CF200F10800A4FA8CF283FA4CF3A2FAA1
:1004B0008CF37BB9D1E9062301F1200182FA4CF2D9
:1004C00000F10800A4FA8CF283FA4CF3A2FA8CF340
:1004D000002BC6D0002A04BF04301A4612BAB2FA62
:1004E00082F200EBD20030BC7047D1E9002304F067
:1004F0000305C4F100004FEAC50514F0040F91F89C
:1005000040F00CFA05F562EA05021CBF63EA050338
:1005100062464FF00004AAE700000000000000005F
:1005200001F0FF01102A2BDB10F0070F08D010F8A4
:10053000013B013A8B422DD010F0070F42B3F6D1A8
:10054000F0B441EA012141EA014122F007047FF0C1
:1005500000070023F0E80256083C85EA010586EA18
:10056000010685FA47F5A3FA87F586FA47F6A5FA54
:1005700087F68EB9EED1F0BC01F0FF0102F0070260
:1005800032B110F8013B013A83EA010313B1F8D10B
:100590000020704701387047002D06BF35460338EC
:1005A000073815F0010F07D1013015F4807F02BF25
:1005B000013015F4C03F0130F0BC0138704700BF76
:1005C000844641EA000313F003036DD1403A41D35E
:1005D00051F8043B40F8043B51F8043B40F8043B1D
:1005E00051F8043B40F8043B51F8043B40F8043B0D
:1005F00051F8043B40F8043B51F8043B40F8043BFD
:1006000051F8043B40F8043B51F8043B40F8043BEC
:1006100051F8043B40F8043B51F8043B40F8043BDC
:1006200051F8043B40F8043B51F8043B40F8043BCC
:1006300051F8043B40F8043B51F8043B40F8043BBC
:1006400051F8043B40F8043B51F8043B40F8043BAC
:10065000403ABDD2303211D351F8043B40F8043B4C
:1006600051F8043B40F8043B51F8043B40F8043B8C
:1006700051F8043B40F8043B103AEDD20C3205D35C
:1006800051F8043B40F8043B043AF9D2043208D054
:10069000D2071CBF11F8013B00F8013B01D30B88C6
:1006A00003806046704700BF082A13D38B078DD0A4
:1006B00010F003038AD0C3F10403D21ADB071CBF76
:1006C00011F8013B00F8013B80D331F8023B20F8E0
:1006D000023B7BE7043AD9D3013A11F8013B00F819
:1006E000013BF9D20B7803704B7843708B788370A1
:1006F0006046704781F0004102E000BF83F0004394
:1007000030B54FEA41044FEA430594EA050F08BFAC
:1007100090EA020F1FBF54EA000C55EA020C7FEA70
:10072000645C7FEA655C00F0E2804FEA5454D4EBED
:100730005555B8BF6D420CDD2C4480EA020281EAB7
:10074000030382EA000083EA010180EA020281EAEF
:100750000303362D88BF30BD11F0004F4FEA013141
:100760004FF4801C4CEA113102D0404261EB410150
:1007700013F0004F4FEA03334CEA133302D05242D6
:1007800063EB430394EA050F00F0A780A4F1010492
:10079000D5F1200E0DDB02FA0EFC22FA05F28018CC
:1007A00041F1000103FA0EF2801843FA05F35941B2
:1007B0000EE0A5F120050EF1200E012A03FA0EFC31
:1007C00028BF4CF0020C43FA05F3C01851EBE3715B
:1007D00001F0004507D54FF0000EDCF1000C7EEB78
:1007E00000006EEB0101B1F5801F1BD3B1F5001FB6
:1007F0000CD349085FEA30004FEA3C0C04F10104D5
:100800004FEA445212F5800F80F09A80BCF1004FFD
:1008100008BF5FEA500C50F1000041EB045141EA7F
:10082000050130BD5FEA4C0C404141EB0101013C48
:1008300028BFB1F5801FE9D291F0000F04BF014637
:100840000020B1FA81F308BF2033A3F10B03B3F109
:1008500020020CDA0C3208DD02F1140CC2F10C0299
:1008600001FA0CF021FA02F10CE002F11402D8BFF7
:10087000C2F1200C01FA02F120FA0CFCDCBF41EAC3
:100880000C019040E41AA2BF01EB0451294330BD92
:100890006FEA04041F3C1CDA0C340EDC04F114046F
:1008A000C4F1200220FA04F001FA02F340EA030046
:1008B00021FA04F345EA030130BDC4F10C04C4F18C
:1008C000200220FA02F001FA04F340EA030029466C
:1008D00030BD21FA04F0294630BD94F0000F83F4B6
:1008E000801306BF81F480110134013D4EE77FEA99
:1008F000645C18BF7FEA655C29D094EA050F08BFE5
:1009000090EA020F05D054EA000C04BF19461046C5
:1009100030BD91EA030F1EBF0021002030BD5FEA09
:10092000545C05D14000494128BF41F0004130BD31
:1009300014F580043CBF01F5801130BD01F0004585
:1009400045F0FE4141F470014FF0000030BD7FEAF8
:10095000645C1ABF194610467FEA655C1CBF0B46F3
:10096000024650EA013406BF52EA033591EA030F0A
:1009700041F4002130BD00BF90F0000F04BF002102
:10098000704730B54FF4806404F132044FF0000535
:100990004FF0000150E700BF90F0000F04BF0021AE
:1009A000704730B54FF4806404F1320410F0004514
:1009B00048BF40424FF000013EE700BF42004FEA0F
:1009C000E2014FEA31014FEA02701FBF12F07F438C
:1009D00093F07F4F81F06051704732F07F4208BF43
:1009E000704793F07F4F04BF41F40021704730B54A
:1009F0004FF4607401F0004521F000411CE700BF96
:100A000050EA010208BF704730B54FF000050AE018
:100A100050EA010208BF704730B511F0004502D519
:100A2000404261EB41014FF4806404F132045FEA1B
:100A3000915C3FF4D8AE4FF003025FEADC0C18BFC4
:100A400003325FEADC0C18BF033202EBDC02C2F1B6
:100A5000200300FA03FC20FA02F001FA03FE40EA48
:100A60000E0021FA02F11444BDE600BF70B54FF04C
:100A7000FF0C4CF4E06C1CEA11541DBF1CEA13552A
:100A800094EA0C0F95EA0C0F00F0DEF82C4481EA92
:100A9000030621EA4C5123EA4C5350EA013518BFB2
:100AA00052EA033541F4801143F4801338D0A0FB9F
:100AB00002CE4FF00005E1FB02E506F00042E0FB4C
:100AC00003E54FF00006E1FB03569CF0000F18BF52
:100AD0004EF0010EA4F1FF04B6F5007F64F54074FA
:100AE00004D25FEA4E0E6D4146EB060642EAC6218D
:100AF00041EA55514FEAC52040EA5E504FEACE2EFA
:100B0000B4F1FD0C88BFBCF5E06F1ED8BEF1004FFC
:100B100008BF5FEA500E50F1000041EB045170BD78
:100B200006F0004646EA010140EA020081EA0301BC
:100B3000B4EB5C04C2BFD4EB0C0541EA045170BDB8
:100B400041F480114FF0000E013C00F3AB8014F132
:100B5000360FDEBF002001F0004170BDC4F100047B
:100B6000203C35DA0C341BDC04F11404C4F12005FC
:100B700000FA05F320FA04F001FA05F240EA020057
:100B800001F0004221F0004110EBD37021FA04F68D
:100B900042EB06015EEA430E08BF20EAD37070BD47
:100BA000C4F10C04C4F1200500FA04F320FA05F0A6
:100BB00001FA04F240EA020001F0004110EBD370A8
:100BC00041F100015EEA430E08BF20EAD37070BD18
:100BD000C4F1200500FA05F24EEA020E20FA04F3F1
:100BE00001FA05F243EA020321FA04F001F00041A0
:100BF00021FA04F220EA020000EBD3705EEA430E11
:100C000008BF20EAD37070BD94F0000F0FD101F03F
:100C10000046400041EB010111F4801F08BF013C78
:100C2000F7D041EA060195F0000F18BF704703F0B6
:100C30000046520043EB030313F4801F08BF013D3D
:100C4000F7D043EA0603704794EA0C0F0CEA1355F9
:100C500018BF95EA0C0F0CD050EA410618BF52EAB3
:100C60004306D1D181EA030101F000414FF00000B9
:100C700070BD50EA410606BF1046194652EA4306C7
:100C800019D094EA0C0F02D150EA013613D195EA3B
:100C90000C0F05D152EA03361CBF104619460AD183
:100CA00081EA030101F0004141F0FE4141F470018D
:100CB0004FF0000070BD41F0FE4141F4780170BD7D
:100CC00070B54FF0FF0C4CF4E06C1CEA11541DBFE2
:100CD0001CEA135594EA0C0F95EA0C0F00F0A7F8E4
:100CE000A4EB050481EA030E52EA03354FEA013111
:100CF00000F088804FEA03334FF0805545EA131324
:100D000043EA12634FEA022245EA111545EA1065EB
:100D10004FEA00260EF000419D4208BF964244F182
:100D2000FD0404F5407402D25B084FEA3202B61AA1
:100D300065EB03055B084FEA32024FF480104FF475
:100D4000002CB6EB020E75EB030E22BFB61A7546E9
:100D500040EA0C005B084FEA3202B6EB020E75EB7C
:100D6000030E22BFB61A754640EA5C005B084FEAE4
:100D70003202B6EB020E75EB030E22BFB61A7546B1
:100D800040EA9C005B084FEA3202B6EB020E75EBBC
:100D9000030E22BFB61A754640EADC0055EA060E7D
:100DA00018D04FEA051545EA16754FEA06164FEAC0
:100DB000C30343EA52734FEAC2025FEA1C1CC0D16C
:100DC00011F4801F0BD141EA00014FF000004FF0F9
:100DD000004CB6E711F4801F04BF01430020B4F1BA
:100DE000FD0C88BFBCF5E06F3FF6AFAEB5EB030C72
:100DF00004BFB6EB020C5FEA500C50F1000041EB6F
:100E0000045170BD0EF0004E4EEA113114EB5C043B
:100E1000C2BFD4EB0C0541EA045170BD41F480110E
:100E20004FF0000E013C90E645EA060E8DE60CEA16
:100E3000135594EA0C0F08BF95EA0C0F3FF43BAF33
:100E400094EA0C0F0AD150EA01347FF434AF95EAEA
:100E50000C0F7FF425AF104619462CE795EA0C0FCE
:100E600006D152EA03353FF4FDAE1046194622E79B
:100E700050EA410618BF52EA43067FF4C5AE50EA75
:100E800041047FF40DAF52EA43057FF4EBAE12E765
:100E90004FF0FF3C06E000BF4FF0010C02E000BF46
:100EA0004FF0010C4DF804CD4FEA410C7FEA6C5C29
:100EB0004FEA430C18BF7FEA6C5C1BD001B050EACC
:100EC000410C0CBF52EA430C91EA030F02BF90EAB7
:100ED000020F0020704710F1000F91EA030F58BF76
:100EE000994208BF90422CBFD8176FEAE37040F0D8
:100EF000010070474FEA410C7FEA6C5C02D150EA76
:100F0000013C07D14FEA430C7FEA6C5CD6D152EA30
:100F1000033CD3D05DF8040B704700BF84461046F5
:100F200062468C461946634600E000BF01B5FFF7F4
:100F3000B7FF002848BF10F1000F01BD4DF808EDC4
:100F4000FFF7F4FF0CBF012000205DF808FB00BF95
:100F50004DF808EDFFF7EAFF34BF012000205DF8EF
:100F600008FB00BF4DF808EDFFF7E0FF94BF01203C
:100F700000205DF808FB00BF4DF808EDFFF7CEFF3D
:100F800094BF012000205DF808FB00BF4DF808ED7C
:100F9000FFF7C4FF34BF012000205DF808FB00BF4D
:100FA0004FEA410C7FEA6C5C02D150EA013C0AD165
:100FB0004FEA430C7FEA6C5C02D152EA033C02D157
:100FC0004FF0000070474FF0010070474FEA4102B8
:100FD00012F5001215D211D56FF47873B3EB62528B
:100FE00012D94FEAC12343F0004343EA505311F0B2
:100FF000004F23FA02F018BF404270474FF0000044
:10100000704750EA013005D111F0004008BF6FF081
:10101000004070474FF00000704700BF0348044B8A
:10102000834202D0034B03B118477047C406002027
:10103000C4060020000000000548064B1B1AD90F0B
:1010400001EBA301491002D0034B03B118477047CD
:10105000C4060020C40600200000000010B5064CA5
:10106000237843B9FFF7DAFF044B13B10448AFF319
:1010700000800123237010BDC40600200000000082
:1010800048A1000808B5054B1BB105490548AFF359
:101090000080BDE80840FFF7CFBF00BF00000000A0
:1010A000C806002048A1000870B58AB00024059445
:1010B0000694079408940994294B5A6942F4001243
:1010C0005A615A6902F400120092009A5A6942F475
:1010D00000225A615A6902F400220192019A5A6967
:1010E00042F480025A615A6902F480020292029A22
:1010F0005A6942F400325A615A6902F4003203928A
:10110000039A5A6942F480225A615B6903F480238E
:101110000493049B134D22464FF60871284600F0B5
:101120007BFE372305934FF490130693079405A98C
:10113000284600F089FD4FF60873059301260696B0
:101140000794089405A9284600F07EFD05960694AC
:10115000079405A94FF0904000F076FD0AB070BDED
:10116000001002400010004808B501224FF4007141
:10117000014800F051FE08BD0010004808B50022EB
:101180004FF40071014800F047FE08BD0010004810
:1011900000B587B00A4600238DF817304FF480332E
:1011A0000293012301930DF11701009101460748B5
:1011B00001F030F930B1FFF7D7FF9DF8170007B005
:1011C0005DF804FBFFF7DAFFF7E700BF0C0B002028
:1011D00000B587B08DF817204FF4803302930123B8
:1011E00001930DF1170200920A460146054801F0ED
:1011F0003CF820B1FFF7B8FF07B05DF804FBFFF73C
:10120000BDFFF9E70C0B002000B587B08DF80F008B
:1012100000238DF817304FF48053009301230DF114
:1012200017020DF10F01074802F093F930B1FFF7F3
:101230009BFF9DF8170007B05DF804FBFFF79EFFCA
:10124000F7E700BFA80A002008B50F213220FFF7FA
:101250009FFF08BD08B53220FFF7F6FF332804D002
:101260004FF4FA7000F072FC08BD67222021322092
:10127000FFF7AEFF082223213220FFF7A9FFEFE797
:1012800010B582B0044628213220FFF781FF8DF887
:10129000000029213220FFF77BFF8DF801002A2171
:1012A0003220FFF775FF8DF802002B213220FFF767
:1012B0006FFF8DF803002C213220FFF769FF8DF8B6
:1012C00004002D213220FFF763FF8DF80500002276
:1012D00012E0510001F109036B4413F9083C9BB281
:1012E0001B029BB20831694411F9081C13FA81F3FF
:1012F00024F812300132D2B2022AEAD902B010BD6B
:1013000008B53C20FFF7A0FF3C2804D04FF4FA704A
:1013100000F01CFC08BD1C220021FFF759FF202211
:1013200001213C20FFF754FF002202213C20FFF75F
:101330004FFFEBE710B582B0044603213C20FFF7D6
:1013400027FF8DF8000004213C20FFF721FF8DF8D6
:10135000010005213C20FFF71BFF8DF8020006214C
:101360003C20FFF715FF8DF8030007213C20FFF715
:101370000FFF8DF8040008213C20FFF709FF8DF8CE
:101380000500002211E0510002AB03EB420313F908
:10139000083C9BB21B029BB20931694411F9081C3D
:1013A00013FA81F324F812300132022AEBDD02B085
:1013B00010BD000070B505461446012A0AD941F057
:1013C000C006002208210C4800F026FD3046FFF739
:1013D0001BFF09E041F08006F3E70020FFF714FF50
:1013E00005F8010B013CA4B2002CF6D10122082122
:1013F000014800F011FD70BD0010004870B50546B1
:101400000E461446012208210E4800F005FD012C6D
:1014100001D946F04006002208210A4800F0FCFCF1
:101420003046FFF7F1FE05E015F8010BFFF7ECFE83
:10143000013CA4B2002CF7D101220821014800F0A0
:10144000EBFC70BD0010004800B583B000238DF8A0
:10145000073001220F210DF10700FFF7ABFF9DF8C8
:10146000070003B05DF804FB10B582B000238DF8CF
:101470000730FFF7E9FFD42807D0FFF775FE4FF4D8
:10148000FA7000F063FB02B010BDFF238DF8073047
:10149000012220210DF10700FFF7B0FF20238DF876
:1014A0000730012221210DF10700FFF7A7FF0824D3
:1014B0008DF80740012222210DF10700FFF79EFF62
:1014C0008DF80740012223210DF10700FFF796FF59
:1014D00010238DF80730012224210DF10700FFF7BA
:1014E0008DFFCCE730B583B0054601222821684640
:1014F000FFF784FF012229210DEB0200FFF77EFF99
:1015000001222A210DF10200FFF778FF01222B2191
:101510000DF10300FFF772FF01222C2101A8FFF754
:101520006DFF01222D210DF10500FFF767FF00245B
:1015300012E0630003F109026A4412F8080C083350
:101540006B4413F8083C03EB0020FEF7F3FEFEF7B4
:1015500045FF25F814000134022CEADD03B030BD4C
:1015600072B6FEE708B51148114B0360114B43609A
:10157000002383600122C260036143618361C36110
:10158000036200F014FE50B90021084801F01AF877
:1015900038B90021054801F043F820B908BDFFF72C
:1015A000DFFFFFF7DDFFFFF7DBFF00BF0C0B0020C5
:1015B000005400400E09002008B51048104B03608D
:1015C0004FF482734360002383604FF4E062C26093
:1015D000036143614FF4007282611822C2610362A9
:1015E000436283620722C26203630823436301F0FC
:1015F0003CFF00B908BDFFF7B3FF00BFA80A0020F9
:101600000030014008B50B480B4B03604FF4E13349
:10161000436000238360C36003610C2242618361E5
:10162000C3610362436202F0D2FB00B908BDFFF759
:1016300097FF00BF200A00200044004008B508487A
:10164000084B036008234360022383600361002387
:101650008361036201F010F800B908BDFFF780FF55
:1016600034070020005C004000B59FB02822002114
:1016700014A802F053FD00210F91109111911291C5
:1016800013913C22684602F049FD032314934FF462
:1016900080331593012218921022199202221B9274
:1016A0001C934FF4E0131D9314A801F04BF8D0B92C
:1016B0000F230F9302211091002311934FF48062A6
:1016C000129213930FA801F08DFB70B9094B009390
:1016D0000023039307930E93684601F089FC30B909
:1016E0001FB05DF804FBFFF73BFFFFF739FFFFF783
:1016F00037FF00BF2200020000B583B000F002FAFD
:10170000FFF7B2FFFFF7D0FCFFF72CFFFFF754FF06
:10171000FFF778FFFFF792FFFFF79CFDFFF7F0FD63
:10172000FFF7A2FEFFF790FED42829D001224FF444
:101730000071174800F070FB164C2046FFF7A0FD23
:101740001548FFF7F7FD1548FFF7CCFEB4F9043054
:10175000134D0093B4F90230B4F900201149284622
:1017600002F074FC2846FEF76BFE4FF4805382B201
:1017700029460D4802F064FA052000F0E7F9DBE79E
:1017800001224FF40061024800F046FBD4E700BF9D
:10179000001000482C070020240700201C07002010
:1017A000E006002060A10008200A002000B583B0F8
:1017B0000C4B9A6942F001029A619A6902F00102A7
:1017C0000092009ADA6942F08052DA61DB6903F034
:1017D00080530193019B072000F000FA03B05DF8ED
:1017E00004FB00BF0010024010B588B00023039333
:1017F00004930593069307930268134B9A4201D012
:1018000008B010BD114C636943F4802363616369C0
:1018100003F480230193019BC023039312230493B9
:1018200001230593032306930423079303A9084880
:1018300000F00AFAE36943F40013E361E36903F497
:1018400000130293029BDBE70054004000100240AB
:101850000004004800B589B0002303930493059366
:10186000069307930268144B9A4202D009B05DF8C0
:1018700004FB03F560439A6942F480529A619A69C5
:1018800002F480520192019A5A6942F400325A617C
:101890005B6903F400330293029BE023039302236A
:1018A0000493032306930523079303A94FF0904065
:1018B00000F0CAF9DAE700BF0030014000B589B096
:1018C0000023039304930593069307930268144B34
:1018D0009A4202D009B05DF804FB03F5E633DA69F9
:1018E00042F40032DA61DA6902F400320192019ABC
:1018F0005A6942F400325A615B6903F4003302937F
:10190000029B0C23039302230493032306930723D0
:10191000079303A94FF0904000F096F9DAE700BF73
:101920000044004010B588B000230393049305934E
:10193000069307930268134B9A4201D008B010BD7A
:10194000114C636943F400336361636903F400334A
:101950000193019B4FF4C053039302230493032389
:1019600006930E23079303A94FF0904000F06CF903
:10197000E36943F40003E361E36903F400030293C2
:10198000029BDBE7005C004000100240FEE7FEE740
:10199000FEE7FEE7FEE770477047704708B500F0C6
:1019A000C3F808BD0120704708B502F05DFC16239E
:1019B00003604FF0FF3008BD08B54FF0FF31FFF76F
:1019C000F3FFFEE770B50C461646002506E0AFF3C0
:1019D0000080214601F8010B01350C46B542F6DBCB
:1019E000304670BD70B50C461646002504E014F86C
:1019F000010BAFF300800135B542F8DB304670BD16
:101A00004FF0FF3070474FF400534B600020704799
:101A1000012070470020704710B503460C4A0D495D
:101A20000D48006840B10C4800680344521A9342C4
:101A300006D8094A136010BD0748084C0460F2E755
:101A400002F012FC0C2303604FF0FF30F3E700BFFD
:101A500000A0002000040000600B0020800E002089
:101A600070470000DFF834D0FFF7FAFF0C480D494B
:101A70000D4A002302E0D458C4500433C4188C42E9
:101A8000F9D30A4A0A4C002301E013600432A2424F
:101A9000FBD302F0EFFBFFF72FFEFEE700A00020D4
:101AA00000000020C4060020B8A50008C4060020DD
:101AB0007C0E0020FEE7000010B504460E4B1A789D
:101AC0004FF47A73B3FBF2F30C4A1068B0FBF3F0F7
:101AD00000F0A6F868B90F2C01D901200AE0002215
:101AE00021464FF0FF3000F08BF8054B1C600020C2
:101AF00000E0012010BD00BF040000200000002015
:101B00000800002008B5074A136843F0100313606B
:101B1000032000F063F80020FFF7CEFFFFF746FE3A
:101B2000002008BD00200240034A1168034B1B78C7
:101B30000B441360704700BF640B002004000020BA
:101B4000014B1868704700BF640B002038B504468D
:101B5000FFF7F6FF0546B4F1FF3F02D0044B1B78B8
:101B60001C44FFF7EDFF401BA042FAD338BD00BF75
:101B700004000020002808DB0901C9B200F1604020
:101B800000F5614080F80013704700F00F00090174
:101B9000C9B2014B1954704714ED00E000B500F0D4
:101BA0000700C0F1070CBCF1040F28BF4FF0040C74
:101BB000031D062B0FD9C31E4FF0FF3E0EFA0CF08B
:101BC00021EA000199400EFA03FE22EA0E0241EAE0
:101BD00002005DF804FB0023EEE70000074AD3682B
:101BE00023F4E0631B041B0C000200F4E0600343D9
:101BF00043F0BF6343F40033D360704700ED00E06F
:101C000010B50446054BD868C0F30220FFF7C6FFA5
:101C100001462046FFF7AEFF10BD00BF00ED00E01B
:101C20000138B0F1807F0BD24FF0E0235861054AB4
:101C3000F02182F823100020986107221A61704772
:101C40000120704700ED00E070B582B0002365E030
:101C500085685E000324B44025EA0405CC68B440DE
:101C60002C438460456825EA0C054C68C4F30014D5
:101C70009C402C43446062E0DD08083550F8254064
:101C800003F0070C4FEA8C0C4FF00F0E0EFA0CFE0F
:101C900024EA0E0E0C6904FA0CF444EA0E0440F82F
:101CA000254063E0042400E0002404FA0EF42C43F1
:101CB0000CF1020C544D45F82C40544CA568D4430B
:101CC00025EA0206D1F804C01CF4801F01D042EAC4
:101CD00005064E4DAE60ED6804EA0506D1F804C075
:101CE0001CF4001F01D042EA0506484DEE606D6805
:101CF00004EA0506D1F804C01CF4003F01D042EA12
:101D00000506424D6E602D682C404E6816F4803FEB
:101D100001D042EA05043D4A146001330A6832FAF0
:101D200003F46ED04FF0010C0CFA03FC1CEA020223
:101D3000F3D04C6804F00304013C012C88D94C68B2
:101D400004F00304032C0CD0C4685D004FF0030CB6
:101D50000CFA05FC24EA0C0C8C68AC4044EA0C0438
:101D6000C4604C6804F00304022C85D004684FEA78
:101D7000430E4FF0030C0CFA0EFC24EA0C0C4C68DA
:101D800004F0030404FA0EF444EA0C0404604C6802
:101D900014F4403FC1D01E4CA56945F00105A56172
:101DA000A46904F001040194019C4FEA930C0CF126
:101DB0000205154C54F8255003F0030E4FEA8E0E21
:101DC0000F2404FA0EF425EA0405B0F1904F3FF415
:101DD0006BAF104CA0420ED004F58064A0420CD032
:101DE00004F58064A0420AD004F58064A0423FF468
:101DF00059AF052459E7012457E7022455E7032486
:101E000053E702B070BD00BF000001400004014074
:101E100000100240000400480AB1816170478162ED
:101E2000704703689A6912F0020F01D000229A628B
:101E300003689A6912F0010F03D19A6942F0010216
:101E40009A61704710B4019CC1F3090141EA024153
:101E50001943214321F0004102685368640D04F4E2
:101E6000806444F07F7444F4583444F47F7444F044
:101E7000030423EA04030B43536010BC70472DE9AD
:101E8000F041044603689E6916F010067CD00D46AA
:101E900090461022DA61002637462368986910F0D0
:101EA000200F30D17FBBB5F1FF3FF6D0FFF748FEE2
:101EB000A0EB0800A84201D8002DEED121684B68A4
:101EC00003F4804394F84220D2B2886910F4004FA2
:101ED00002D00BB9202A0ED123689B6913F0200F82
:101EE000DBD1FFF72DFEA0EB08001928F4D946F04E
:101EF00020060127D1E74B6843F480434B60FFF78E
:101F00001FFE8046E8E70FB92022DA6146F004069A
:101F100001252268936913F4807F05D046F00106FD
:101F20004FF48071D161012513F4806F06D046F023
:101F3000080622684FF48061D161012513F4007F07
:101F400024D046F0020623684FF40072DA610125BE
:101F50002046FFF766FF2268536823F0FF7323F4DF
:101F60008B3323F4FF7323F001035360636C33431B
:101F70006364202384F84130002384F8423084F8DD
:101F800040302846BDE8F0810025C2E7002DF8D09A
:101F9000DEE770B504460D46164623689B6913F0CC
:101FA000020F22D1324629462046FFF768FFF0B9DA
:101FB000B5F1FF3FF1D0FFF7C3FD801BA84201D868
:101FC000002DEAD123689B6913F0020FE5D1636C01
:101FD00043F020036364202384F84130002384F815
:101FE000423084F84030012000E0002070BD012024
:101FF000FCE72DE9F04105460F46164698462C6849
:10200000A46937EA04040CBF01240024B44222D19D
:10201000B8F1FF3FF3D0FFF793FD069BC01A404590
:1020200002D8B8F1000FEAD12B689B6937EA0303A5
:102030000CBF01230023B342E1D16B6C43F02003BA
:102040006B64202385F84130002385F8423085F801
:102050004030012000E00020BDE8F0812DE9F04192
:1020600082B0044690461D46089E099F194B009376
:102070004FF08073EAB2FFF7E5FE3A46314620465C
:10208000FFF787FFF8B9012D0ED123685FFA88F2B8
:102090009A6200973346002280212046FFF7A9FF6D
:1020A000A8B902B0BDE8F08123684FEA18229A620D
:1020B0003A4631462046FFF76CFF30B923685FFA95
:1020C00088F29A62E5E70120EBE70120E9E70120C9
:1020D000E7E700BF002000802DE9F04182B0044610
:1020E00090461D46089E099F184B00930023EAB2B4
:1020F000FFF7A8FE3A4631462046FFF74AFFF8B9F7
:10210000012D0ED123685FFA88F29A620097334658
:10211000002240212046FFF76CFFA8B902B0BDE8BD
:10212000F08123684FEA18229A623A4631462046E7
:10213000FFF72FFF30B923685FFA88F29A62E5E76C
:102140000120EBE70120E9E70120E7E7002000801C
:1021500070B504460D46164604E023689B6913F0EB
:10216000200F12D023689B6913F0200F1BD1324639
:1021700029462046FFF783FEB8B9FFF7E1FC801B34
:10218000A842EAD8002DEDD1E7E7636C43F02003C5
:102190006364202384F84130002384F8423084F8BB
:1021A0004030012000E0002070BD0120FCE7002845
:1021B00059D010B5044690F84130002B43D0242369
:1021C00084F841302268136823F0010313606368C8
:1021D000226823F0706313612268936823F400433C
:1021E0009360E368012B33D0A368226843F404436F
:1021F0009360E368022B31D02268536843F0007388
:1022000043F4004353602268D36823F40043D3604F
:10221000236962691343A169226843EA0123D360F9
:10222000E369216A22680B4313602268136843F054
:102230000103136000206064202384F84130206390
:1022400084F8420010BD80F84030FFF7CDFAB6E7C1
:10225000A368226843F400439360CAE723684FF4FD
:1022600000625A60C8E7012070472DE9F04F83B043
:102270000E46BDF834A00E9D90F84110C9B2202939
:1022800040F0BB800446904699460C9BCBB1BAF116
:10229000000F16D090F84030012B00F0B2804FF0C4
:1022A000010B80F840B0FFF74BFC07460090192364
:1022B0005A464FF400412046FFF79BFE30B1012003
:1022C0009CE04FF400736364012097E0212384F8BD
:1022D0004130402384F84230002363640C9A6262E8
:1022E000A4F82AA06363019700954B464246314605
:1022F0002046FFF7B3FE70B9638D9BB2FF2B0FD959
:10230000FF222285002300934FF080733146204640
:10231000FFF798FD21E0002384F8403058466DE037
:10232000628D92B22285002300934FF00073D2B2E7
:1023300031462046FFF786FD0FE0628D92B222857E
:10234000002300934FF00073D2B231462046FFF7CE
:1023500079FD638D9BB2002B33D03A462946204647
:10236000FFF717FE00284ED1626A236812789A623E
:10237000636A01336362638D9BB2013B9BB26385E9
:10238000238D013B9BB22385628D92B2002AE0D05F
:10239000002BDED100972B46002280212046FFF73C
:1023A00028FE90BB638D9BB2FF2BC6D9FF222285EE
:1023B000002300934FF0807331462046FFF742FD23
:1023C000C7E73A4629462046FFF7C2FEF8B9236818
:1023D0002022DA6121684B6823F0FF7323F48B33EA
:1023E00023F4FF7323F001034B6084F841200023A2
:1023F00084F8423084F8403000E0022003B0BDE8A9
:10240000F08F0220FAE70120F8E70120F6E701202B
:10241000F4E700002DE9F04F83B00E46BDF834A07C
:102420000E9D90F84110C9B2202940F0BC800446AE
:10243000904699460C9BCBB1BAF1000F16D090F89C
:102440004030012B00F0B3804FF0010B80F840B01A
:10245000FFF776FB0746009019235A464FF40041D8
:102460002046FFF7C6FD30B101209DE04FF4007318
:102470006364012098E0222384F84130402384F8EB
:102480004230002363640C9A6262A4F82AA063635A
:10249000019700954B46424631462046FFF71CFE09
:1024A00070B9638D9BB2FF2B0FD9FF222285444B5D
:1024B00000934FF0807331462046FFF7C3FC21E0C4
:1024C000002384F8403058466EE0628D92B2228537
:1024D0003B4B00934FF00073D2B231462046FFF7DA
:1024E000B1FC0FE0628D92B22285002300934FF081
:1024F0000073D2B231462046FFF7A4FC638D9BB235
:10250000002B34D000972B46002204212046FFF7F1
:1025100070FD00284DD123685A6A636A1A70636A95
:1025200001336362228D013A92B22285638D9BB2A0
:10253000013B9BB26385638D9BB2002BDED0002AEA
:10254000DCD100972B4680212046FFF752FD90BB3F
:10255000638D9BB2FF2BC5D9FF22228500230093F8
:102560004FF0807331462046FFF76CFCC6E73A46D1
:1025700029462046FFF7ECFDF8B923682022DA61EE
:1025800021684B6823F0FF7323F48B3323F4FF732C
:1025900023F001034B6084F84120002384F842308B
:1025A00084F8403000E0022003B0BDE8F08F022044
:1025B000FAE70120F8E70120F6E70120F4E700BF81
:1025C00000240080034690F84120D2B2202A23D173
:1025D00090F84020012A21D0012280F840202422B6
:1025E00080F841200068026822F001020260186849
:1025F000026822F480520260186802681143016088
:1026000019680A6842F001020A60202283F841201A
:10261000002083F840007047022070470220704776
:10262000034690F84120D2B2202A21D190F84020D0
:10263000012A1FD0012280F84020242280F8412066
:102640000068026822F0010202601868026822F441
:10265000706242EA0122026019680A6842F00102CF
:102660000A60202283F84120002083F84000704750
:102670000220704702207047002860D030B587B034
:10268000044690F8A9323BB1032384F8A9322068AC
:1026900001F0CEFB00231BE080F8A832FFF742F9DF
:1026A000F2E75A1C02EB820104EBC10101204870E1
:1026B00002EB820104F8313004EBC1000021C1704B
:1026C00003EB830004EBC0008163C1630164D3B2F8
:1026D00060688342E5D3002316E003EB830204EB3A
:1026E000C202002182F8691182F8683182F86B1108
:1026F000C2F87811C2F87C1103EB830204EBC2022A
:10270000C2F880110133DBB29842E6D8A4465CF8E7
:10271000105BEE46BCE80F00AEE80F00DCF80030BE
:10272000CEF80030231D0ECB284601F08BFB002095
:1027300084F82400012384F8A93207B030BD0120B9
:1027400070470000002800F0FF8270B582B0044698
:10275000036813F0010F3BD0B44B5B6803F00C032C
:10276000042B1ED0B14B5B6803F00C03082B13D075
:102770006368B3F5803F68D0002B40F0928003F18E
:10278000804303F504331A6822F480321A601A6811
:1027900022F480221A605DE0A44B5B6813F4803F52
:1027A000E6D04FF4003393FAA3F3A04B19684FF42B
:1027B000003393FAA3F3B3FA83F303F01F03012268
:1027C00002FA03F30B4203D06368002B00F0BE82D1
:1027D000236813F0020F00F0C480944B5B6813F081
:1027E0000C0F00F09C80914B5B6803F00C03082BEE
:1027F00000F08F802369002B00F0F080012292FA14
:10280000A2F3B3FA83F303F1845303F584139B001B
:102810001A60FFF795F90546022393FAA3F3834B59
:102820001968022393FAA3F3B3FA83F303F01F03A7
:10283000012202FA03F30B4240F0C280FFF780F955
:10284000401B0228E8D9032089E2784A136843F440
:1028500080331360754AD36A23F00F03A1680B43DA
:10286000D3626368002B36D0FFF76AF905464FF450
:10287000003393FAA3F36D4B19684FF4003393FAC6
:10288000A3F3B3FA83F303F01F03012202FA03F365
:102890000B429DD1FFF754F9401B6428E7D9032070
:1028A0005DE2B3F5A02F09D0604B1A6822F48032A4
:1028B0001A601A6822F480221A60CBE703F1804381
:1028C000A3F53C331A6842F480221A601A6842F475
:1028D00080321A60BEE7FFF733F905464FF4003344
:1028E00093FAA3F3514B19684FF4003393FAA3F30F
:1028F000B3FA83F303F01F03012202FA03F30B423E
:102900003FF466AFFFF71CF9401B6428E6D90320AB
:1029100025E2464B5B6813F4803F7FF46BAF0223E4
:1029200093FAA3F3414B1968022393FAA3F3B3FA82
:1029300083F303F01F03012202FA03F30B4203D0D7
:102940002369934240F004823848036823F0F80377
:102950006169F82292FAA2F2B2FA82F291400B4334
:102960000360236813F0080F00F08C80A369002B2C
:1029700060D0012191FAA1F2B2FA82F22C4B1344F9
:102980009B001960FFF7DCF80546022393FAA3F2D7
:1029900093FAA3F293FAA3F2244A516A93FAA3F3A7
:1029A000B3FA83F303F01F03012202FA03F30B428D
:1029B00068D1FFF7C5F8401B0228E6D90320CEE115
:1029C0001A48036823F0F8036169F82292FAA2F228
:1029D000B2FA82F291400B430360C2E7012393FAFB
:1029E000A3F3B3FA83F303F1845303F584139B0039
:1029F00000221A60FFF7A4F80546022393FAA3F316
:102A00000A4B1968022393FAA3F3B3FA83F303F092
:102A10001F03012202FA03F30B42A2D0FFF790F842
:102A2000401B0228E9D9032099E100BF00100240B1
:102A300020819010012292FAA2F2B2FA82F2B74BF0
:102A400013449B0000221A60FFF77AF80546022320
:102A500093FAA3F293FAA3F293FAA3F2B04A516A5B
:102A600093FAA3F3B3FA83F303F01F03012202FAEC
:102A700003F30B4206D0FFF763F8401B0228E6D9A8
:102A800003206CE1236813F0040F00F0A980A44B2D
:102A9000DB6913F0805F20D1A14BDA6942F08052EC
:102AA000DA61DB6903F080530193019B01259D4BA3
:102AB0001B6813F4807F12D0E368012B23D073BB13
:102AC00003F1804303F504331A6A22F001021A620B
:102AD0001A6A22F004021A621AE00025E7E7914A16
:102AE000136843F480731360FFF72AF806468D4B92
:102AF0001B6813F4807FDFD1FFF722F8801B642866
:102B0000F5D903202BE1864A136A43F001031362CF
:102B1000E368002B3CD0FFF713F806462EE0052BA8
:102B200009D07F4B1A6A22F001021A621A6A22F057
:102B300004021A62ECE77A4B1A6A42F004021A6243
:102B40001A6A42F001021A62E2E7022393FAA3F33F
:102B5000734B596A022393FAA3F3B3FA83F303F096
:102B60001F03012202FA03F3194238D1FEF7E8FFEE
:102B7000801B41F28833984200F2EC80022393FAE2
:102B8000A3F293FAA3F3002BDFD0654B196AE1E7B8
:102B9000FEF7D6FF064618E0022393FAA3F3604B34
:102BA000596A022393FAA3F3B3FA83F303F01F03E2
:102BB000012202FA03F3194211D0FEF7C1FF801B74
:102BC00041F28833984200F2C780022393FAA3F2BD
:102BD00093FAA3F3002BDFD0514B196AE1E7B5BBA1
:102BE000E369002B00F0BA804D4A526802F00C02F3
:102BF000082A00F09980022B2FD04FF0807393FAAF
:102C0000A3F3B3FA83F303F1845303F584139B0016
:102C100000221A60FEF794FF04464FF0007393FA07
:102C2000A3F33F4B19684FF0007393FAA3F3B3FA81
:102C300083F303F01F03012202FA03F319426BD05E
:102C4000FEF77EFF001B0228E7D9032087E0344A05
:102C5000D36923F08053D361C2E74FF0807393FAB6
:102C6000A3F3B3FA83F303F1845303F584139B00B6
:102C700000221A60FEF764FF05464FF0007393FAD6
:102C8000A3F3274B19684FF0007393FAA3F3B3FA39
:102C900083F303F01F03012202FA03F3194206D063
:102CA000FEF74EFF401B0228E7D9032057E01C49DE
:102CB0004B6823F47413626A206A024313434B6027
:102CC0004FF0807393FAA3F3B3FA83F303F18453C1
:102CD00003F584139B0001221A60FEF731FF0446BE
:102CE0004FF0007393FAA3F30D4B19684FF0007384
:102CF00093FAA3F3B3FA83F303F01F03012202FA5A
:102D000003F3194206D1FEF71BFF001B0228E7D987
:102D1000032024E0002022E0002020E02081901009
:102D20000010024000700040012B1AD0104B5B686D
:102D300003F48031226A914215D103F47013626A60
:102D4000934212D100200AE001207047012006E0E2
:102D5000012004E0032002E0032000E0002002B094
:102D600070BD0120FBE70120F9E70120F7E700BF74
:102D700000100240164B5B6803F00C02082A01D0D9
:102D80001448704703F470114FF4701292FAA2F2D3
:102D9000B2FA82F221FA02F20F49885C0C4AD26A36
:102DA00002F00F020F2191FAA1F1B1FA81F1CA40AC
:102DB0000A498A5C13F4803F05D0064BB3FBF2F35B
:102DC00003FB00F07047064B03FB00F0704700BFA9
:102DD0000010024000127A009CA100088CA100089B
:102DE00000093D00002800F0BE8070B50D46044685
:102DF000614B1B6803F007038B420BD25E4A1368DA
:102E000023F007030B431360136803F007038B429F
:102E100040F0AB80236813F0020F06D0574A536886
:102E200023F0F003A1680B435360236813F0010FF4
:102E30005AD06368012B2DD0022B40D0022292FA87
:102E4000A2F24E4A1068022292FAA2F2B2FA82F27A
:102E500002F01F02012101FA02F2104200F0878005
:102E600046494A6822F0030213434B60FEF768FEAE
:102E70000646424B5B6803F00C036268B3EB820FBB
:102E800032D0FEF75DFE801B41F288339842F0D9C4
:102E9000032067E04FF4003292FAA2F2374A10683A
:102EA0004FF4003292FAA2F2B2FA82F202F01F025A
:102EB000012101FA02F20242D2D1012052E04FF088
:102EC000007292FAA2F22D4A10684FF0007292FA44
:102ED000A2F2B2FA82F202F01F02012101FA02F21A
:102EE0001042BDD101203DE0234B1B6803F00703D6
:102EF000AB420AD9204A136823F007032B4313601F
:102F0000136803F00703AB4233D1236813F0040FB7
:102F100006D01A4A536823F4E063E1680B43536018
:102F2000236813F0080F07D0144A536823F4605342
:102F3000216943EAC1035360FFF71CFF0F4B5B6835
:102F400003F0F003F02292FAA2F2B2FA82F2D34036
:102F50000B4AD35CD8400B4B18600B4B1868FEF73C
:102F6000ABFD002070BD012070470120FAE7012071
:102F7000F8E70120F6E700BF002002400010024001
:102F80007CA100080000002008000020014B186808
:102F9000704700BF0000002008B5FFF7F7FF074BA0
:102FA0005B6803F4E0634FF4E06292FAA2F2B2FAD3
:102FB00082F2D340024AD35CD84008BD00100240E0
:102FC00074A1000808B5FFF7E1FF074B5B6803F445
:102FD00060534FF4605292FAA2F2B2FA82F2D340F6
:102FE000024AD35CD84008BD0010024074A100081A
:102FF000F0B583B00446036813F4803F48D0914B8A
:10300000DB6913F0805F40F0D4808E4BDA6942F0C8
:103010008052DA61DB6903F080530193019B012543
:10302000894B1B6813F4807F00F0C580854B1B6AB9
:1030300013F4407322D0626802F440729A421DD0A9
:103040008048016A21F440764FF4803393FAA3F26A
:10305000B2FA82F27D4F3A4492004FF0010CC2F86E
:1030600000C093FAA3F3B3FA83F33B449B0000221E
:103070001A60066211F0010F40F0B280714A136AC3
:1030800023F4407361680B431362002D40F0CF803E
:10309000236813F0010F06D06A4A136B23F0030371
:1030A000A1680B431363236813F0020F06D0654A2F
:1030B000136B23F44033E1680B431363236813F06D
:1030C000040F06D05F4A136B23F4402321690B439E
:1030D0001363236813F0200F06D05A4A136B23F0B2
:1030E0001003E1690B431363236813F4003F06D018
:1030F000544A536823F48003A16B0B435360236845
:1031000013F0400F06D04F4A136B23F02003216ABF
:103110000B431363236813F0080F06D0494A136B5F
:1031200023F4401361690B431363236813F0100FFA
:1031300006D0444A136B23F44003A1690B43136385
:10314000236813F4007F06D03E4A536823F400033B
:10315000E16A0B435360236813F0800F06D0394AAD
:10316000D36A23F4F873616A0B43D362236813F4C0
:10317000807F06D0334AD36A23F47853A16A0B4385
:10318000D362236813F4805F06D02E4A136B23F4B6
:103190008073216B0B431363236813F4005F4DD0DE
:1031A000284A136B23F40073616B0B4313630020F5
:1031B00045E0002534E7244A136843F48073136024
:1031C000FEF7BEFC0646204B1B6813F4807F7FF49D
:1031D0002DAFFEF7B5FC801B6428F4D903202EE048
:1031E000FEF7AEFC064618E0022393FAA3F3154B54
:1031F000596A022393FAA3F3B3FA83F303F01F038C
:10320000012202FA03F30B427FF438AFFEF798FC79
:10321000801B41F2883398420ED8022393FAA3F21E
:1032200093FAA3F3002BDFD0064B196AE1E7D369C9
:1032300023F08053D3612BE7032000E0002003B08C
:10324000F0BD00BF001002400070004000819010EF
:103250002DE9F04782B00546884617461E46FEF720
:103260006FFC0A9B1B1A03EB0609FEF769FC8246FA
:10327000284B1B68C3F3CB3309FB03F301932B6883
:103280009C6838EA04040CBF01230023BB423DD0F4
:10329000B6F1FF3FF3D0FEF753FCA0EB0A00484520
:1032A00007D2019A02B14A46019B013B0193914624
:1032B000E5E72A68536823F0E00353606B68B3F5D1
:1032C000827F0BD0AB6AB3F5005F14D0012385F881
:1032D0005D30002385F85C30032018E0AB68B3F55F
:1032E000004F02D0B3F5806FECD12A68136823F049
:1032F00040031360E6E72A68136823F40053136061
:103300002A68136843F400531360DFE7002002B01B
:10331000BDE8F087000000202DE9F04782B00646A6
:103320000C4615461F4600238DF80330FEF708FCB7
:103330000A9B1B1A03EB0708FEF702FC8146D6F82E
:1033400000A0304B1B6803EB8303C3EBC3031B0DCF
:1033500008FB03F3019302E0B7F1FF3F12D133689A
:103360009B6803EA040CAC4547D0B4F5C06FF3D1B9
:10337000002DF1D19AF80C30DBB28DF803309DF8B6
:103380000330E9E7FEF7DCFBA0EB0900404507D27C
:10339000019A02B14246019B013B01939046DEE750
:1033A0003268536823F0E00353607368B3F5827F9B
:1033B0000BD0B36AB3F5005F14D0012386F85D30FB
:1033C000002386F85C30032018E0B368B3F5004FA3
:1033D00002D0B3F5806FECD13268136823F040035C
:1033E0001360E6E73268136823F400531360326811
:1033F000136843F400531360DFE7002002B0BDE818
:10340000F08700BF0000002070B582B004460D4672
:10341000164600920B4600224FF4C051FFF77CFF86
:10342000B0B900962B46002280212046FFF710FFFE
:10343000A8B900962B4600224FF4C0612046FFF742
:103440006BFF50B1236E43F020032366032004E09A
:10345000236E43F020032366032002B070BD236E69
:1034600043F0200323660320F7E700286FD010B550
:103470000446436A33B94368B3F5827F05D000231D
:10348000C36102E00023036143610023A36294F857
:103490005D30002B52D0022384F85D30226813681F
:1034A00023F040031360E368B3F5E06F4CD90022CA
:1034B000B3F5706F04D0B3F5E06F01D00023A362C1
:1034C000636803F48273A16801F404410B4321692A
:1034D00001F002010B43616901F001010B43A16995
:1034E00001F400710B43E16901F038010B43216ADB
:1034F00001F080010B43A16A01F4005120680B43E5
:103500000360638B03F00403616A01F010010B4355
:10351000616B01F008010B43E16801F470610B433A
:1035200021681A434A602268D36923F40063D36197
:1035300000202066012384F85D3010BD84F85C30E3
:103540002046FEF787F9A6E74FF48052B0E7012046
:1035500070472DE9F8431F46089D90F85C30012B19
:1035600000F06B81044688469146012380F85C3068
:10357000FEF7E6FA064694F85D30DBB26268012B8E
:103580000AD0B2F5827F40F04681A268002A40F05E
:103590004881042B40F04781B8F1000F00F04581CD
:1035A000B9F1000F00F04381002F00F0428194F840
:1035B0005D30DBB2042B02D0052384F85D3000239C
:1035C0002366C4F84090A4F84670A4F84470C4F888
:1035D0003880E787A787E3642365E368B3F5E06F86
:1035E00001D8012F23D92268536823F480535360F4
:1035F00023681A6812F0400F03D11A6842F04002A3
:103600001A60E368B3F5E06F5CD963680BB1012F12
:103610000BD1A26B23681288DA60A36B0233A36319
:10362000E38F9BB2013B9BB2E387012730E0226826
:10363000536843F480535360DAE7A26B1288DA6070
:10364000A36B0233A363E38F9BB2013B9BB2E3877F
:10365000002723689A6812F0010F11D0B4F84620B1
:1036600092B26AB1DA68236C1A80236C0233236445
:10367000B4F846309BB2013B9BB2A4F84630012718
:10368000FEF75EFA831BAB4202D3B5F1FF3F14D1C4
:10369000E38F9BB22BB9B4F846309BB2002B00F0FD
:1036A000AB8023689A6812F0020FD2D0E28F92B2F8
:1036B000002ACED0002FCCD0BFE7012384F85D30A4
:1036C0000320A9E063680BB1012F0FD1E38F9BB2F8
:1036D000012B0DD9A26B23681288DA60A36B023329
:1036E000A363E38F9BB2023B9BB2E387012749E0D0
:1036F000A26B236812781A73A36B0133A363E38F61
:103700009BB2013B9BB2E387F0E7E28F92B2012AC2
:103710000CD9A26B1288DA60A36B0233A363E38F28
:103720009BB2023B9BB2E38700273DE0A26B12787D
:103730001A73A36B0133A363E38F9BB2013B9BB26C
:10374000E387002730E02268536843F480535360D6
:1037500001270DE0226C1B7B1370236C0133236463
:10376000B4F846309BB2013B9BB2A4F84630012727
:10377000FEF7E6F9801BA84202D3B5F1FF3F36D130
:10378000002D34D0E38F9BB223B9B4F846309BB2FE
:10379000002B31D023689A6812F0020F04D0E28F18
:1037A00092B20AB1002FB0D123689A6812F0010FCB
:1037B000DED0B4F8462092B2002AD9D0B4F8462020
:1037C00092B2012AC6D9DA68236C1A80236C0233BC
:1037D0002364B4F846309BB2023B9BB2A4F8463057
:1037E000B4F846309BB2012BADD90127C0E70123C5
:1037F00084F85D3003200FE0324629462046FFF76B
:1038000003FE10B1202323660120236E9BB9012300
:1038100084F85D3000E00220002384F85C30BDE8CD
:10382000F8830220F8E70220F6E70120F4E7012000
:10383000F2E70120F0E70120EEE70220EFE702685F
:1038400052E8003F23F4907342E800310029F6D19A
:10385000026802F1080353E8003F23F00103083235
:1038600042E800310029F3D1036E012B06D020235A
:10387000C0F880300023036683667047026852E810
:10388000003F23F0100342E800310029F6D1EEE7B3
:1038900010B50446836802691A4343691A43C36931
:1038A0001A4301680B6823F4164323F00C031343F7
:1038B0000B600268536823F44053C1680B435360A4
:1038C0008269036A1A4301688B6823F430631343E7
:1038D0008B6003687B4A93420DD07B4A93421CD095
:1038E0007A4A93423AD07A4A93424AD0794A9342EA
:1038F0005AD010231FE0784B1B6B03F00303032BFC
:1039000009D8DFE803F002040664012313E004236E
:1039100011E008230FE010230DE06F4B1B6B03F445
:103920004033B3F5003F54D013D8002B53D0B3F538
:10393000803F52D10423E069B0F5004F69D0082BD5
:1039400000F2B980DFE803F092A890B7ABB7B7B741
:10395000AE00B3F5403F42D10223ECE75E4B1B6B58
:1039600003F44023B3F5002F3BD005D8DBB3B3F508
:10397000802F3AD10423DEE7B3F5402F37D102235D
:10398000D9E7554B1B6B03F44013B3F5001F30D040
:1039900005D883B3B3F5801F2FD10423CBE7B3F54C
:1039A000401F2CD10223C6E74B4B1B6B03F4400393
:1039B000B3F5000F25D005D82BB3B3F5800F24D174
:1039C0000423B8E7B3F5400F21D10223B3E7022364
:1039D000B1E70823AFE70023ADE71023ABE71023DF
:1039E000A9E70823A7E70023A5E71023A3E71023EF
:1039F000A1E708239FE700239DE710239BE71023FF
:103A000099E7082397E7002395E7102393E710230E
:103A100091E7082B49D8DFE803F0051F2548224825
:103A200048480900FFF7B8FA002840D062685308F8
:103A300003EB4003B3FBF2F3A3F110014FF6EF7277
:103A4000914236D89AB222F00F02C3F342031343D5
:103A50002268D36000201BE0FFF7B4FAE4E7FFF729
:103A600089F9E1E71D48E1E71C4802E0FFF794FA15
:103A700018B3636800EB5300B0FBF3F0A0F1100241
:103A80004FF6EF739A421AD8236880B2D8600020AC
:103A90000023A366E36610BDFFF794FAE8E7FFF79B
:103AA00069F9E5E74FF40040E3E70120F0E7002083
:103AB000EEE70120ECE70120EAE70020E8E701203B
:103AC000E6E700BF003801400044004000480040E5
:103AD000004C0040005000400010024000127A00EC
:103AE000436A13F0010F06D00268536823F40033D1
:103AF000816A0B435360436A13F0020F06D00268D9
:103B0000536823F48033C16A0B435360436A13F054
:103B1000040F06D00268536823F48023016B0B4323
:103B20005360436A13F0080F06D00268536823F409
:103B30000043416B0B435360436A13F0100F06D0F0
:103B40000268936823F48053816B0B439360436A4C
:103B500013F0200F06D00268936823F40053C16B62
:103B60000B439360436A13F0400F0AD00268536816
:103B700023F48013016C0B435360036CB3F5801F77
:103B80000BD0436A13F0800F06D00268536823F409
:103B90000023816C0B43536070470268536823F421
:103BA000C003416C0B435360EBE72DE9F843054636
:103BB0000F4616469946DDF820802B68DC6937EA07
:103BC00004040CBF01240024B44232D1B8F1FF3FF9
:103BD000F3D0FDF7B5FFA0EB090040452CD8B8F1B4
:103BE000000F2BD02B681A6812F0040FE5D0DA69A9
:103BF00012F0080F11D1DA6912F4006FDDD04FF422
:103C000000621A622846FFF71AFE2023C5F88430A6
:103C1000002385F8783003200CE008241C62284635
:103C2000FFF70DFEC5F88440002385F878300120A9
:103C300000E00020BDE8F8830320FBE70320F9E75C
:103C40002DE9F04182B01E46C36F202B56D10446A9
:103C50000D469046002955D00AB901204FE00023B7
:103C6000C0F884302123C367FDF76AFF0746A4F834
:103C70005080A4F85280A368B3F5805F02D04FF063
:103C8000000818E0236913B14FF0000813E0A846BC
:103C9000002510E02023E367032030E038F8023BE2
:103CA0002268C3F308031385B4F8522092B2013A94
:103CB00092B2A4F85220B4F852309BB27BB1009675
:103CC0003B46002280212046FFF76FFF0028E1D10C
:103CD000002DE3D015F8012B23681A85E4E7009640
:103CE0003B46002240212046FFF75FFF10B920230A
:103CF000E36704E02023E367032000E0022002B032
:103D0000BDE8F0810120FAE730B583B00446002316
:103D1000C0F88430FDF714FF05462268126812F0DF
:103D2000080F0FD123681B6813F0040F26D120233E
:103D3000E367C4F8803000202066606684F878006D
:103D400003B030BD6FF07E430093034600224FF472
:103D500000112046FFF729FF0028E3D0226852E82F
:103D6000003F23F0800342E800310029F6D12023F0
:103D7000E367002384F878300320E1E76FF07E43A7
:103D800000932B4600224FF480012046FFF70DFFE1
:103D90000028CCD0226852E8003F23F4907342E818
:103DA00000310029F6D1226802F1080353E8003FF0
:103DB00023F00103083242E800310029F3D1202327
:103DC000C4F88030002384F878300320B8E768B363
:103DD00010B50446C36F03B32423E3672268136856
:103DE00023F0010313602046FFF752FD012813D092
:103DF000636ABBB92268536823F490435360226816
:103E0000936823F02A0393602268136843F0010348
:103E100013602046FFF778FF10BD80F87830FDF77B
:103E20004DFDD9E72046FFF75BFEE3E70120704731
:103E3000B0F8403023F47C535B045B0CA0F84030B6
:103E40000020704784B0844601A880E80E0001235A
:103E5000ACF840300020ACF84000ACF84400ACF8BE
:103E6000500004B070470000024A0349034800F0C4
:103E7000C9B800BF0C000020CD660008200000205B
:103E80000C4B4168994210B5044601D002F01EFC6B
:103E9000A168094B994202D0204602F017FCE16864
:103EA000064B994204D02046BDE8104002F00EBCFB
:103EB00010BD00BF680B0020D00B0020380C002084
:103EC0002DE9F843314C324B3248DFF8CC90DFF823
:103ED000CC80334F1860002529460423082204F1C2
:103EE0005C00304EE360C4E90055C4E90455A560A8
:103EF0006566A56100F012F904F15800C4E90749AC
:103F0000C4E90987E66200F0DDF92946264B6367BC
:103F1000082204F1C400C4E91A55C4E91E552567F6
:103F2000C4F8CC50C4F8805000F0F8F804F16803ED
:103F300004F1C000C4F88430C4E92298C4E92476AE
:103F400000F0C0F9194BC4F8DC30294604F596702E
:103F50000822C4E93455C4E93855C4F8D850C4F827
:103F60003451C4F8E85000F0D9F804F1D003C4E9A2
:103F70003D87C4F8F09004F59470C4F8FC60C4F870
:103F8000EC30BDE8F84300F09DB900BF680B00209D
:103F9000A00C0020693E00088D400008B1400008D8
:103FA000F14000081541000809000100120002005C
:103FB00010B504460A4800F089F9636B23B9094B30
:103FC000094A1B68626323B1BDE81040044800F051
:103FD0007FB9FFF775FFBDE81040014800F078B9E0
:103FE000B00C0020A00C0020813E0008014800F029
:103FF0006DB900BFB00C0020014800F069B900BFE6
:10400000B00C00202DE9F84380460F4616464FF0CD
:104010000009D6E90154013D11D4A389012B05F112
:10402000FF3508D9B4F90E300133214603D040469C
:10403000B84749EA00096B1C04F16804EDD1366801
:10404000002EE6D14846BDE8F88300BF0EB410B597
:104050009DB06FF000411FAB04910791094953F8DF
:10406000042B02900690084C0868019302A905945D
:1040700000F060FD029B00221A701DB0BDE81040E8
:1040800003B07047180000200802FFFF10B50C466F
:10409000B1F90E1000F0BCF8002803DB236D0344D7
:1040A000236510BDA38923F48053A38110BD00BFF5
:1040B0002DE9F0410C46B1F90C101F46CB05054621
:1040C00016460BD421F48051A1813B46B4F90E1061
:1040D00032462846BDE8F04100F0B0B8B4F90E1001
:1040E0000223002200F07EF8B4F90C10EAE700BFCA
:1040F00010B50C46B1F90E1000F074F8B4F90C309C
:10410000421C0EBF23F4805343F480532065A381E7
:1041100010BD00BFB1F90E1000F052B8830730B5E2
:1041200047D0541E002A3ED0CAB2034601E0013CEB
:1041300039D303F8012B9D07F9D1032C2CD9CDB22B
:1041400005EB05250F2C05EB054535D9A4F110022B
:1041500022F00F0C03F1100EE6444FEA121C1A462F
:10416000156055609560D56010327245F8D10CF13C
:10417000010214F00C0F03EB021204F00F0C13D029
:10418000ACF1040323F003030433134442F8045B4B
:104190009A42FBD10CF003042CB1C9B21C4403F8C1
:1041A000011B9C42FBD130BD64461346002CF4D168
:1041B000F9E703461446C0E71A46A446E0E700BF05
:1041C00038B5074D0022044608462A60FDF718FC62
:1041D000431C00D038BD2B68002BFBD0236038BDBA
:1041E000A40C002038B50C46084D844611462046E4
:1041F0001A4600232B606446FDF70CFC431C00D0DC
:1042000038BD2B68002BFBD0236038BDA40C0020E8
:1042100038B50C46084D8446114620461A46002300
:104220002B606446FDF7CEFB431C00D038BD2B68E5
:10423000002BFBD0236038BDA40C002038B50C4601
:10424000084D8446114620461A4600232B606446DA
:10425000FDF7C8FB431C00D038BD2B68002BFBD0FA
:10426000236038BDA40C0020014B1868704700BFC4
:104270001800002070B50F4B0F4DAB42A3EB0506A5
:1042800007D0B610002455F8043B01349847A642E5
:10429000F9D805F059FF094D094B5E1BAB424FEAB7
:1042A000A60606D0002455F8043B01349847A642E0
:1042B000F9D870BDACA50008ACA50008ACA50008F5
:1042C000B4A50008704700BF704700BF704700BF2B
:1042D000704700BF024B13B1024800F005B87047A9
:1042E00000000000A9690008002301461A4618468C
:1042F00002F0B4BB2DE9F84306460820894602F0D7
:1043000067FBDFF89C800546304600F007FCD8F8D4
:1043100008305F6827F00307A7F11104A4EB090434
:104320002C44B4FBF5F4013C05FB04F4A54208DC85
:104330000021304602F026FBD8F808303B44984272
:1043400005D0304600F0F0FB0020BDE8F883614264
:10435000304602F017FB01300FD0124AD8F808306F
:104360003F1B47F001075F60136830461B1B13605B
:1043700000F0DAFB0120BDE8F8830021304602F0AE
:1043800001FBD8F80820831A0F2BDADD43F0010374
:104390005360054B03491B68C01A0860D1E700BF92
:1043A00050010020B80C00204401002000297CD0DE
:1043B000F8B50C46064600F0B1FB54F8043C774FC4
:1043C000A4F1080523F001016818D7F808C0426875
:1043D000844522F0030200F08380DB07426000EB9B
:1043E000020C33D454F8084CDCF804302D1B214463
:1043F000AC6807F1080C644503F0010364D0D5F8FC
:104400000CE0C4F80CE0CEF80840002B00F08180EE
:1044100041F001036B600160B1F5007F22D2786842
:10442000CB080122490901338A40024357F833106F
:104430007A6007EBC302083AC5E9021247F8335025
:10444000CD603046BDE8F84000F06EBBDCF80430CB
:10445000DB072BD541F00103B1F5007F44F8043CA4
:104460000160DCD3B1F5206F4FEA512353D28B09A1
:1044700003F1390003F13802C300F818FB5808387B
:10448000984203D163E09B68984204D05A6822F0B6
:1044900003028A42F7D8D868C5E902308560DD603A
:1044A0003046BDE8F84000F03FBB7047114407F1CB
:1044B000080C836863453FD0C268DA60936041F0BE
:1044C00001036B606950A7E7002B61D10A44D0E972
:1044D0000213CB60996042F001036B60AA50B0E711
:1044E0000A44D90707D454F8083CED1A1A44D5E910
:1044F0000213CB60996042F001036B60284BBD60F2
:104500001B6893429DD8274B30461968FFF7F2FE8F
:1045100097E71144CDE7142B08D9542B1FD80B0B68
:1045200003F16F0003F16E02C300A6E703F15C0024
:1045300003F15B02C300A0E741F001033D617D612F
:10454000C5F808C0C5F80CC06B60695079E7796898
:104550009210012404FA02F20A437A609CE7B3F550
:10456000AA7F06D8CB0B03F1780003F17702C300D2
:1045700083E740F25452934206D88B0C03F17D003E
:1045800003F17C02C30078E74FF47E737E2274E768
:1045900041F001036B60016053E700BF5001002050
:1045A00048010020E80C00202DE9F04F01F10B0537
:1045B000162D85B0064624D8102900F2B18000F0EF
:1045C000ADFA102518234FF0020CBA4F3B44A3F16B
:1045D00008025C68944200F022816368E268A16886
:1045E00023F00303CA602344304691605A6842F0C6
:1045F00001025A60083400F097FA204605B0BDE881
:10460000F08F35F0070500F18B80A94200F2888019
:1046100000F084FAB5F5FC7FC0F073816B0A00F0FE
:104620008380042B00F22281AB0903F1390C03F1E2
:10463000380E4FEACC039F4F3B44A3F108005C685F
:10464000A04207D10DE0002AE16880F2E2808842B2
:1046500007D00C46636823F003035A1B0F2AF2DDD0
:10466000F446DFF854823C69444500F0BF8063683B
:1046700023F00309A9EB05030F2B00F34781002B5F
:10468000C7E9048880F23181B9F5007FD7F804E0EA
:1046900080F0CC804FEAD90101314FEA591901234A
:1046A00003FA09F357F83120A2604EEA030E07EB34
:1046B000C103083BE360C7F804E047F83140D46029
:1046C0004FEAAC0301209840704534D810EA0E0F31
:1046D00007D12CF0030C400010EA0E0F0CF1040C73
:1046E000F9D007EBCC0A5246E146D1680EE04B68A0
:1046F00023F00303A3EB050EBEF10F0F0C46C968B0
:1047000000F3C180BEF1000F80F2E2808A42EED158
:1047100009F1010919F0030F02F10802E5D121E1C5
:104720000C233360002468E74FF400734FF0400C13
:104730004FF03F0E7FE7BC68636823F00309A9458B
:1047400003D3A9EB05030F2B53DC5C4BDFF870B1EF
:104750001B68082003F1100802F03AF9DBF800307A
:1047600001900133A84404EB090205D008F1FF3899
:104770008044434203EA080841463046029202F070
:1047800001F9B0F1FF3F029A824600F0DC808242DC
:1047900000F2D7804B4B01991868404401F1FF317A
:1047A0001860844640F0FC801AEA010F40F0F8805F
:1047B000D7F808A0C84448F00102CAF80420424BC8
:1047C0001968814238BF1860404B1968814238BF70
:1047D0001860544622F00308A845A8EB050301D34E
:1047E0000F2B06DC304600F09FF99BE7D7F804E07A
:1047F00066E7621943F0010345F001056560304644
:10480000BA60536000F090F90834204605B0BDE866
:10481000F08FA2682344D16030468A60E6E6DC6807
:10482000A3427FF4DAAE0CF1020C1AE7B9F5206F5F
:104830004FEA59227ED3142A00F2158102F15C035B
:10484000DB005B32F918FB580839994203D1F0E0DC
:104850009B68994204D05A6822F003024A45F7D86F
:10486000D968C4E902318C60DC6029E7142B6DD96A
:10487000542B00F201812B0B03F16F0C03F16E0E30
:104880004FEACC03D7E63046A668621945F0010529
:104890006560F1608E604EF00101C7E90422C2F844
:1048A0000880C2F80C80516044F803E000F03CF945
:1048B0000834A2E65001002058010020E80C002036
:1048C00044010020B80C0020E40C0020E00C002083
:1048D000234430465A6842F001025A6054F8083FB7
:1048E000D9608B6000F020F987E6A1443046D9F802
:1048F000043043F00103C9F80430083400F014F91F
:104900007BE64FEAD50C05F108035EE6621943F039
:10491000010145F0010565603046C7E90422C2F88F
:104920000880C2F80C80516044F8093000F0FCF8AF
:10493000083462E64FEA991202F13903DB0038329B
:1049400080E7BC4224D0BC68626843E703F15C0C9A
:1049500003F15B0E4FEACC036DE65AF80839534574
:1049600040F0D8801CF0030F0CF1FF3CF5D17B68C0
:1049700023EA00037B60400098423FF6DCAE18B9A2
:10498000D9E6400009F104091842FAD0CC46A8E65D
:10499000614B0199186808EB000C0139C3F800C09D
:1049A000DBF8000001301BBFAAEB02026244CBF827
:1049B00000A01A601AF00702CDE9022342D0C2F12A
:1049C0000802019B9244D044134408EA01001A1AD9
:1049D00002EA010B5946304601F0D4FF421C039B0A
:1049E0007AD0A0EB0A0000EB0B081868C7F808A003
:1049F00048F001025844BC42CAF8042018603FF451
:104A0000DEAEB9F10F0F42D96168A9F10C0222F0B4
:104A1000070201F0010111436160A1184FF0050C7C
:104A20000F2AC1F804C0C1F808C04AD8DAF8042037
:104A3000C5E69210012000FA02F24EEA020EC7F813
:104A400004E00EE7019B0AEB08020A409A1A02EA08
:104A5000010B5946304601F095FF431C039BC0D122
:104A6000DDF808B0C1E7542A15D84FEA193202F12F
:104A70006F03DB006E32E5E6B3F5AA7F15D8EB0BCA
:104A800003F1780C03F1770E4FEACC03D3E5012351
:104A9000CAF80430A6E6B2F5AA7F25D84FEAD93283
:104AA00002F17803DB007732CCE640F254529342B5
:104AB00025D8AB0C03F17D0C03F17C0E4FEACC033F
:104AC000B9E5304604F108010193FFF76FFC019B43
:104AD000D7F808A01868A9E7029A083A9044A8EB0A
:104AE0000A084FF0000B80E740F254539A420DD869
:104AF0004FEA994202F17D03DB007C32A2E64FF4DB
:104B00007E734FF07F0C4FF07E0E94E54FF47E7372
:104B10007E2297E67B682EE7B80C00200148FFF75D
:104B2000D5BB00BFA80C00200148FFF7D1BB00BFD8
:104B3000A80C00202DE9F04FDFB00C4609919146FA
:104B40000D93834601F01AFF03681A931846FBF78A
:104B500077FC0021189008222EA8FFF7DFFAA3891E
:104B6000190603D52369002B00F088870023CDE9BF
:104B70003333CDE91B33CDE91D33139319930A93D6
:104B800000240023CDE9163435AA32929046CDF8A0
:104B90001CB04D46079F2E46734BD3F8E44001F0FE
:104BA000E7FE03462EA8009032462AA93846A047C1
:104BB000002800F0A980C0F29F802A9A252A034687
:104BC00001D01E44E8E7771B044640F0A080002394
:104BD0008DF89F3099460B934FF0FF32737808920F
:104BE000741C0134A3F120025A2A00F2BF80DFE8CE
:104BF00012F0E602BD00BD00E202BD00BD00BD0036
:104C00006A00BD00BD0048025702BD005302F40215
:104C1000BD00F0025B005B005B005B005B005B00C3
:104C20005B005B005B00BD00BD00BD00BD00BD00C2
:104C3000BD00BD003E01BD00C7010E033E013E01A7
:104C40003E01BD00BD00BD00BD00DE02BD00BD00D7
:104C50005C02BD00BD00BD00F101BD00CB02BD0086
:104C6000BD000607BD00BD00BD00BD00BD00BD000C
:104C7000BD00BD003E01BD00C70123023E013E0153
:104C80003E018D0223027F00BD00A602BD009702F7
:104C9000FB06B9027F00BD00F1017D000107BD00E8
:104CA000BD002A07BD007D00A3F13002002114F8E9
:104CB000013B01EB810102EB4101A3F13002092A22
:104CC000F5D90B918EE7079F384601F057FE4368F0
:104CD0001D931846FBF7B4FB1E900646384601F0BC
:104CE0004DFE83681B93002E40F01686237878E7EC
:104CF000237849F0200974E7082200212EA8FFF745
:104D00000DFA01231E4447E7771B044611D0349B5C
:104D10003B443493339B0133072BC8E9005733934B
:104D200018DC08F108080A9B3B440A93002C7FF426
:104D30004EAF349BDDF81CB0002B41F0ED81099B98
:104D40009B8903F04003002B41F0BD830A985FB0BC
:104D5000BDE8F08F0999079832AA03F089FA002874
:104D6000EDD10DF1D408DEE758050020CDE90E3471
:104D7000002BDED000228DF8143101238DF89F2006
:104D800006930C929B46089214921092129245AD93
:104D900019F0020302D006990231069119F0840736
:104DA000349C05D10B9906980E1A002E00F3A780AB
:104DB00082B10122C8F80420339A013201340DF186
:104DC0009F01072A34943392C8F8001000F303843B
:104DD00008F1080883B1339B28AA01330234C8F8CC
:104DE0000020072B4FF0020234943393C8F80420BC
:104DF00000F3E58308F10808802F00F0BE82089BCD
:104E0000A3EB0B06002E00F3FD8219F4807F40F027
:104E10001782339BC8F8005001335C44072BC8F855
:104E200004B03494339300F36A8308F1080819F04E
:104E3000040F05D00B9B069A9D1A002D00F3DA8310
:104E4000DDE90A3206998A42ACBF9B185B180A93C7
:104E5000002C40F01683002333930C9B1BB10C995C
:104E60000798FFF7A3FA0DF1D4080F9D92E6CDE95C
:104E70000E340D9B073323F00703F3E802670D930D
:104E800027F0004323932296DDE922ABB14B4FF08C
:104E9000FF3250465946CDE91667FCF781F80028E5
:104EA00040F04785AB4B4FF0FF3250465946FCF778
:104EB00059F8002840F03D8500220023304639464D
:104EC000FCF746F8002841F053809DF89F20A24D42
:104ED000A24B29F080090E994729C8BF1D4600231F
:104EE00003210C9306918B4608931493109312930D
:104EF000002A3FF44DAF069B0133069348E7102E7E
:104F0000339A41F3798296482195CDE91F3721469E
:104F1000099D079C15904FF0100A074604E0103ECB
:104F2000102E08F1080816DD01321031072AC8E9F1
:104F3000007ACDE93321F2DD32AA294620460DF16F
:104F4000D40803F095F9002840F0F186103E102EA9
:104F5000DDE93321E8DCDDE91F37219D0C46013214
:104F60001599C8F800103444072ACDE93324C8F84D
:104F7000046000F3CB869DF89F2008F1080817E72E
:104F80000D9A432BCDE90E3402F1040403D019F03D
:104F9000100F00F05D850822002130A8FFF7BEF851
:104FA0000D9B07981A6845AD30AB294603F02CF9E4
:104FB000B0F1FF3F834601F0818220EAE07306935F
:104FC00000220D948DF89F200C920892149210925A
:104FD0001292DDE60D9E56F8045BCDE90E340023F7
:104FE0008DF89F30002D00F058850E9B532B00F05C
:104FF000BA8619F01003129340F0B586089B5A1C2C
:1050000001F0958012991A462846FBF789FA0C9010
:10501000002801F0F0820C9B0D96A3EB050B129B70
:1050200008932BEAEB71149310930C9373239DF860
:105030009F2006910E935BE719F0200FCDE90E3407
:1050400000F0ED800D9B073323F007031A465968E3
:1050500052F8083B0D920A460029C0F21A840899BA
:10506000013100F09D8253EA020129F0800440F0F2
:105070009882089A002A40F09982A14693465EAD34
:1050800052E10D9B53F8042B0B92002A80F22584E9
:105090000B9A0D9352420B92237849F00409A0E534
:1050A0002B238DF89F3023789BE5CDE90E3449F012
:1050B000100919F0200200F0B5830D9B073323F08F
:1050C000070319465A6851F8083B0D9129F480648A
:1050D00000210020089D8DF89F006F1C00F00D81BD
:1050E00053EA020024F0800940F00681002D40F0D0
:1050F0002886002940F0C98314F0010B00F0F183E9
:1051000030238DF877310DF277150DE12378682B78
:1051100003BF637849F40079013449F0400960E540
:1051200019F0200F0F9400F0E6830D9B0A9A1B687C
:105130001A60D2175A600D9B04330D9395E62378BD
:105140006C2B03BF637849F02009013449F0100942
:1051500047E500BFFFFFEF7FACA10008B0A100084A
:1051600000A200080D9A0F9452F8043B0D9247F6E6
:105170003002ADF8A0207820A84A199249F0020424
:10518000002202210E90A4E7CDE90E3449F010046C
:1051900014F0200200F055830D9B073323F0070322
:1051A00019465A6851F8083B0D91012191E723787F
:1051B00049F0080915E5237849F0010911E59DF842
:1051C0009F202378002A7FF40CAD20228DF89F20A9
:1051D00007E5237849F0800903E5214611F8013BF2
:1051E0002A2B01F02B82A3F13002092A0C4698BF2A
:1051F000002101F2328114F8013B01EB810102EB45
:105200004101A3F13002092AF5D90891EAE449F0F5
:10521000100919F0200FCDE90E347FF413AF0D9A69
:1052200019F0100F52F8043B0D9240F0608319F012
:10523000400F00F0588343F3C03211461BB20BE716
:105240000E9B652B40F36681DDE9160100220023E9
:10525000FBF774FE002800F01182339B704AC8F8F7
:105260000020013301340122072B34943393C8F812
:10527000042000F36B8508F10808299B139A9342D8
:1052800080F22683189B1A9A1C44C8E90023339B9A
:1052900034940133072B339300F3E48308F10808B7
:1052A000139B5D1E002D7FF7C2AD102D339B40F385
:1052B000AE855C4FDDF81CB0DDF824A015971026F4
:1052C00005E008F10808103D102D40F3A2850133D8
:1052D0001034072BC8E90076CDE93334F1DD32AA6A
:1052E0005146584602F0C4FF002840F0C082DDE974
:1052F00033340DF1D408E6E74C46012900F0518122
:1053000002295EAD1ED1199803F00F011B09415C03
:1053100005F8011D43EA0273120953EA0201F3D1B1
:105320005EABA146A3EB050B08999DF89F2059455C
:105330004FF00003B8BF59460C9306911493109395
:105340001293D5E503F00701DB0843EA4273D20864
:10535000303153EA0206284605F8011DF2D1E6076E
:10536000DED53029DCD03023023805F8013C5EABB5
:10537000A146A3EB000B0546D6E70B9B069A9E1AA7
:10538000002E7FF73CAD102E339B41F3A1802548C2
:10539000DDF81CA01590214610271A46044604E0AB
:1053A000103E102E08F1080816DD01321031072AD0
:1053B000C8E90047CDE93321F2DD099932AA504608
:1053C0000DF1D40802F054FF002840F0B284103EE2
:1053D000102EDDE93321E8DC0C4613460133159A23
:1053E000C8F800203444072BCDE93334C8F80460F2
:1053F00000F31D85089BA3EB0B06002E08F108089F
:105400007FF703AD074A339B1592102E2ADD224603
:10541000079F099C4FF0100A0BE000BFBCA10008D9
:10542000ECA10008F0A10008103E102E08F10808B9
:1054300017DD01338E491032072BC8E9001ACDE978
:105440003332F1DD32AA2146384602F011FF00283E
:1054500040F00C82103E102EDDE933320DF1D408FD
:10546000E7DC14460133159AC8F800203444072BB2
:10547000CDE93334C8F8046000F3C78108F10808A7
:10548000C3E40999079832AA02F0F2FE00283FF41B
:10549000E2ACDDF81CB0EAE1339B7649C8F80010B5
:1054A000013301340121072B34943393C8F80410DD
:1054B00000F3748508F10808002A40F0E684139A86
:1054C00009F0010313433FF4B2AC189B1A9A1C4431
:1054D000C8E90023339B34940133072B339300F343
:1054E000458608F10808139AC8F80050013314449F
:1054F000072BCDE93334C8F804207FF796AC09991F
:10550000079832AA02F0B4FE0028C2D1349C0DF1F3
:10551000D4088CE4139B339E012B04F1010406F1A3
:10552000010608F1080740F329810123072ECDE980
:105530003364C8F80050C8F8043000F3B181189BF8
:105540001A9A01361C44072EC7E90023CDE93364BB
:1055500000F3B2810837139BDDE9160103F1FF3830
:1055600000220023FBF7EAFC002840F021810136ED
:1055700001354444072ECDE933643D60C7F804800B
:1055800000F30A8108371C9B7B6001361C44072E00
:105590002CABCDE933643B60B1DC07F1080846E48D
:1055A0004C460A2B72F1000180F0538330338DF8A2
:1055B0007731A1464FF0010B0DF27715B4E609994A
:1055C000079832AA02F054FE00287FF462AF349CA0
:1055D0000DF1D40810E409990798159332AA02F046
:1055E00047FE00287FF455AF349C159B0DF1D4087D
:1055F000FFF7F0BB102D339B40F333871E4FDDF8D0
:105600001C90DDF824A01597102604E0103D102D05
:1056100008F1080816DD01331034072BC8E90076BD
:10562000CDE93334F2DD32AA514648460DF1D408B3
:1056300002F01EFE002840F0E883103D102DDDE949
:105640003334E8DC0133159A2C44072BC8E90025D4
:10565000CDE933347FF7F4AB0999079832AA02F009
:1056600007FE00287FF415AF349CFFF7E9BB00BFAD
:10567000F0A10008ECA1000800A20008299A002A65
:105680007FF70AAFDDE912739F42A8BF1F46002FC4
:1056900005EB030B0BDD339B01333C44072BC8E9BF
:1056A00000573494339300F3428608F10808129EA1
:1056B000002FA8BFF61B002E00F30082DDF848A0E3
:1056C00019F4806FAA4440F02182299D139B9D42CA
:1056D00003DB19F0010F00F06F84189B1A9A1C4429
:1056E000C8E90023339B34940133072B339300F331
:1056F000758608F10808139BABEB0A065D1BAE42EA
:10570000A8BF2E46002E0DDD339BC8F800A0013344
:105710003444072BC8F804603494339300F3708644
:1057200008F10808002EA8BFAD1B002D7FF77FAB46
:10573000102D339B40F36B83AD4FDDF81CB0DDF8CB
:1057400024A01597102605E008F10808103D102D3B
:1057500040F35F8301331034072BC8E90076CDE9AD
:105760003334F1DD32AA5146584602F081FD00285B
:105770007DD1DDE933340DF1D408E7E719F0010FED
:105780007FF4D3AE0123072ECDE93364C8F800506F
:10579000C8F804307FF7F7AE0999079832AA02F0EB
:1057A00067FD00287FF475AEDDE9336435AFEAE6C6
:1057B000139B012B7FF7E7AE112B8D4B159340F315
:1057C0005883CDF82090DDF81CA0DDF824B010251A
:1057D000994606E00837A8F11008B8F1100F40F319
:1057E000468301361034072EC7E90095CDE93364AE
:1057F000F0DD32AA5946504602F03AFD002840F04A
:105800009882DDE9336435AFE5E70999079832AA54
:1058100002F02EFD00287FF43CAE349C0DF1D4083C
:10582000FFF7F3BA0D9951F8043B0D9119F01001EF
:105830007FF44CAC19F0400000F063839BB20A4641
:1058400044E40D9951F8043B0D9114F010010BD173
:1058500014F0400003D00A469BB2012139E414F44D
:1058600000721CBFDBB20246012132E4BB460C9B36
:10587000002B3FF464AA0C995846FEF797FD099B4C
:105880009B8903F04003FFF75EBADDF820B05EAD00
:105890004AE55B4262EB42024C462D20012119E4AD
:1058A0000999079832AA02F0E3FC00287FF4F1ADD1
:1058B000DDE9336435AF42E60999079832AA02F070
:1058C000D7FC00287FF4E5ADDDE9336435AF42E66F
:1058D00019F0010F3FF4ABAAD4E40D932378FFF73E
:1058E00080B95EAD20E519F4007F40F07483DA17CB
:1058F0001146FFF7B1BB19F0100F40F0B28219F05A
:10590000400F40F0628319F4007F00F0AA820D9BE3
:105910000A9A1B681A700EE41B9A2378002A3FF437
:1059200060A91278002A3FF45CA949F48069FFF766
:1059300058B9DDE9160102460B46FBF731FB00289A
:1059400040F00F860E9B612B00F00685412B00F086
:105950008285089B013300F017840E9B23F02003FF
:10596000472B04D1089B002B08BF01230893DDE9D6
:10597000161249F48070002A1590CDF818904FF057
:105980000003C0F22185CDE924121F930C930E9BD6
:10599000413B252B00F22883DFE813F001042603A6
:1059A00026032603FA03FE03260326032603260303
:1059B000260326032603260326032603260326039F
:1059C000260326032603260326032603260326038F
:1059D000260326032603260326032603260326037F
:1059E00026032603FA03FE03CDE90E34FFF761BB5D
:1059F000F0A10008CDE90E344C46FFF7C9BBCDE954
:105A00000E34BD4B199319F0200200F008810D9B54
:105A1000073323F0070319465A6851F8083B0D91E4
:105A200019F0010F0AD053EA020107D00E998DF840
:105A3000A110302149F002098DF8A01029F48064EA
:105A40000221FFF746BBCDE90E34AC4B1993DAE7E0
:105A50000D9B1B688DF81431012306939B4645ADC1
:105A6000FFF7AEBA0999079832AA02F001FC0028A4
:105A70007FF40FAD349C0DF1D40811E44021584659
:105A8000FEF792FD099B18601861002800F014864B
:105A9000099A40235361FFF769B8089B0C95062BC0
:105AA000294628BF062308952A460693944D0D964D
:105AB0009B46149110911291FFF71ABA102E339B46
:105AC00040F3EB858F48DDF81CA015904246214637
:105AD000A846099C1027054604E00832103E102E07
:105AE00040F3248201331031072BC2E90057CDE97E
:105AF0003331F2DD32AA2146504602F0B9FB0028CC
:105B000040F01781DDE9333135AAE7E7109BCDF886
